:020000040000FA
:100000000C945D000C9485000C9485000C94850084
:100010000C9485000C9485000C9485000C9485004C
:100020000C9485000C9485000C9485000C9485003C
:100030000C9485000C9485000C9485000C9485002C
:100040000C942C040C9485000C949C040C94760461
:100050000C9485000C9485000C9485000C9485000C
:100060000C9485000C94850000000008000201003B
:100070000003040700000000000000000000000072
:10008000250028002B0000000000240027002A0083
:10009000040404040404040402020202020203032E
:1000A0000303030301020408102040800102040836
:1000B0001020010204081020CE0411241FBECFEF2F
:1000C000D8E0DEBFCDBF11E0A0E0B1E0EAEBFCE09C
:1000D00002C005900D92A635B107D9F722E0A6E53A
:1000E000B1E001C01D92A631B207E1F710E0CDE505
:1000F000D0E004C02197FE010E941F06CC35D10735
:10010000C9F70E942F050C945B060C94000090E048
:10011000FC01EC55FF4F249180579F4FFC018491C7
:10012000882399F090E0880F991FFC01EA57FF4F50
:10013000A591B491FC01E458FF4F859194918FB73C
:10014000F894EC91E22BEC938FBF089590E0FC01C2
:10015000E859FF4F2491FC01EC55FF4F3491FC010D
:10016000E057FF4FE491EE23C9F0222339F023300A
:1001700001F1A8F4213019F1223029F1F0E0EE0F5D
:10018000FF1FE458FF4FA591B4918FB7F894EC91FD
:10019000611126C030953E233C938FBF08952730D0
:1001A000A9F02830C9F0243049F7809180008F7D74
:1001B00003C0809180008F7780938000DFCF84B56B
:1001C0008F7784BDDBCF84B58F7DFBCF8091B0006E
:1001D0008F778093B000D2CF8091B0008F7DF9CF20
:1001E0003E2BDACFCF93DF93EC0180910402909104
:1001F0000502029749F4C130D10509F43BC06CF502
:1002000060E0209709F437C08091040290910502C4
:10021000049749F4C130D10509F45CC00CF037C033
:10022000209709F442C0809104029091050205973D
:1002300009F0E5C0CA30D10508F0E1C0FE01ED5D6E
:10024000FE4F0C941F0682018E019F01B501D00163
:10025000D201D901E501F601FD01C230D105A9F0B5
:1002600060E0C330D10581F6809108020E94A600AB
:1002700060E006C061E0809108020E94A60061E093
:1002800080910A020E94A600BFCF61E0EDCFC2308C
:10029000D10539F1C330D10509F0C5CF61E08091B6
:1002A00008020E94A60060E022C061E0809108027E
:1002B0000E94A60060E080910A020E94A60061E010
:1002C00080910C020E94A60060E080910E020E94C4
:1002D000A600A9CF60E0809108020E94A60061E01C
:1002E000EACF60E0809108020E94A60061E0809160
:1002F0000A020E94A60060E080910C020E94A60003
:1003000061E0E3CF60E0809108020E94A60061E016
:1003100080910A020E94A60061E00BC060E080911B
:1003200008020E94A60061E080910A020E94A600D5
:1003300060E080910C020E94A60060E010C060E0C6
:10034000809108020E94A60061E080910A020E944A
:10035000A60060E080910C020E94A60061E08091FE
:100360000E020E94A60061E015C060E080910802C4
:100370000E94A60061E080910A020E94A60060E04F
:1003800080910C020E94A60061E080910E020E9402
:10039000A60060E080911002DF91CF910C94A6003E
:1003A00061E0E4CF61E0809108020E94A60060E075
:1003B000E2CF61E0809108020E94A60060E0809197
:1003C0000A020E94A60061E0DBCF61E08091080292
:1003D0000E94A60060E080910A020E94A60061E0EF
:1003E00080910C020E94A60060E0CFCF61E0809176
:1003F00008020E94A60060E08BCF60E0F8CFDF919A
:10040000CF9108953FB7F89480915B0190915C0182
:10041000A0915D01B0915E0126B5A89B05C02F3F5C
:1004200019F00196A11DB11D3FBFBA2FA92F982F1A
:100430008827BC01CD01620F711D811D911D42E015
:10044000660F771F881F991F4A95D1F708958F92DD
:100450009F92AF92BF92CF92DF92EF92FF920E9453
:1004600002024B015C0184EFC82EDD24D394E12C01
:10047000F12C0E940202681979098A099B09683ED9
:10048000734081059105A8F321E0C21AD108E10863
:10049000F10888EE880E83E0981EA11CB11CC114DF
:1004A000D104E104F10429F7FF90EF90DF90CF90A1
:1004B000BF90AF909F908F9008954F925F926F92F0
:1004C0007F928F929F92AF92BF92EF92FF920F9383
:1004D0001F93CF93DF93EC0197FF04C0CC27DD2758
:1004E000C81BD90B181619060CF061C081E090E00A
:1004F0009093FD018093FC0104E010E08AE0E82E77
:10050000F12C209709F46FC00E9402028090120221
:1005100090901302A0901402B09015022B013C01A0
:10052000481859086A087B088090FE019090FF01E6
:10053000A0900002B0900102481459046A047B04A0
:1005400000F360931202709313028093140290934D
:10055000150280910602909107022091FC013091D2
:10056000FD012130310559F50196909307028093E2
:10057000060220910202309103028217930721F4B0
:100580001092070210920602219780910602909124
:1005900007022091040230910502B7012530310590
:1005A00009F0B8010E94EC050E94F200AACF892B45
:1005B00009F4A2CF1092FD011092FC019DCF892B6E
:1005C00041F480910202909103029093070280937C
:1005D000060280910602909107020197909307020C
:1005E00080930602D1CFDF91CF911F910F91FF90A1
:1005F000EF90BF90AF909F908F907F906F905F90A3
:100600004F900895AF92BF92CF92DF92EF92FF92F8
:100610000F931F93CF93DF936C017B018B01040F2A
:10062000151FEB015E01AE18BF08C017D10759F0C6
:100630006991D601ED91FC910190F081E02DC60108
:100640000995892B79F7C501DF91CF911F910F9102
:10065000FF90EF90DF90CF90BF90AF900895FC0196
:10066000538D448D252F30E0842F90E0821B930B17
:10067000541710F0CF96089501970895FC01918DBD
:10068000828D981761F0A28DAE0FBF2FB11D5D96C0
:100690008C91928D9F5F9F73928F90E008958FEF62
:1006A0009FEF0895FC01918D828D981731F0828D16
:1006B000E80FF11D858D90E008958FEF9FEF08956D
:1006C000FC01918D228D892F90E0805C9F4F821BD1
:1006D00091098F73992708958FE591E00E94600337
:1006E00021E0892B09F420E0822F089580E090E03A
:1006F000892B29F00E946C0381110C94000008954D
:10070000FC01A48DA80FB92FB11DA35ABF4F2C9186
:10071000848D90E001968F739927848FA689B7897D
:100720002C93A089B1898C91837080648C93938D74
:10073000848D981306C00288F389E02D80818F7D17
:1007400080830895EF92FF920F931F93CF93DF93CF
:10075000EC0181E0888F9B8D8C8D98131AC0E889FD
:10076000F989808185FF15C09FB7F894EE89FF89CC
:100770006083E889F98980818370806480839FBF6A
:1007800081E090E0DF91CF911F910F91FF90EF906A
:100790000895F62E0B8D10E00F5F1F4F0F7311277A
:1007A000E02E8C8D8E110CC00FB607FCFACFE889B5
:1007B000F989808185FFF5CFCE010E948003F1CFBA
:1007C000EB8DEC0FFD2FF11DE35AFF4FF0829FB729
:1007D000F8940B8FEA89FB8980818062CFCFCF9319
:1007E000DF93EC01888D8823B9F0AA89BB89E88959
:1007F000F9898C9185FD03C0808186FD0DC00FB6FF
:1008000007FCF7CF8C9185FFF2CF808185FFEDCF7C
:10081000CE010E948003E9CFDF91CF910895CF935D
:10082000DF93FC0101900020E9F73197AF01481BED
:10083000590BBC018FE591E00E940203EC0142E0FC
:1008400050E062E171E08FE591E00E9402038C0FBD
:100850009D1FDF91CF9108951F920F920FB60F92B7
:1008600011242F933F938F939F93AF93BF938091C6
:10087000570190915801A0915901B0915A013091BE
:10088000560123E0230F2D3758F50196A11DB11D08
:10089000209356018093570190935801A0935901DA
:1008A000B0935A0180915B0190915C01A0915D0130
:1008B000B0915E010196A11DB11D80935B019093E3
:1008C0005C01A0935D01B0935E01BF91AF919F91D8
:1008D0008F913F912F910F900FBE0F901F90189501
:1008E00026E8230F0296A11DB11DD2CF1F920F92B1
:1008F0000FB60F9211242F933F934F935F936F93F3
:100900007F938F939F93AF93BF93EF93FF938FE565
:1009100091E00E948003FF91EF91BF91AF919F9171
:100920008F917F916F915F914F913F912F910F9098
:100930000FBE0F901F9018951F920F920FB60F9237
:1009400011242F938F939F93EF93FF93E0916F0167
:10095000F09170018081E0917501F091760182FD46
:100960001BC09081809178018F5F8F7320917901F6
:10097000821741F0E0917801F0E0E15AFE4F958F47
:1009800080937801FF91EF919F918F912F910F901C
:100990000FBE0F901F9018958081F4CFCF93DF93F7
:1009A000EFE5F1E01382128288EE93E0A0E0B0E080
:1009B00084839583A683B78384E091E091838083C9
:1009C00085EC90E09587848784EC90E09787868714
:1009D00080EC90E0918B808B81EC90E0938B828B0C
:1009E00082EC90E0958B848B86EC90E0978B868BE5
:1009F000118E128E138E148ECCEFD1E01B861A86C8
:100A0000198218821E8A1F8A188E198E80E098E03B
:100A10009F838E8388E090E09D878C8789E090E0BB
:100A20009F878E878AE090E0998B888B8BE090E09F
:100A30009B8B8A8B88E00E9487008E850E948700AE
:100A400088890E9487008A890E9487001D8A1C8AE3
:100A500084E090E099878887DF91CF91089578941A
:100A600084B5826084BD84B5816084BD85B58260B3
:100A700085BD85B5816085BD80916E008160809364
:100A80006E001092810080918100826080938100CD
:100A900080918100816080938100809180008160DD
:100AA000809380008091B10084608093B100809138
:100AB000B00081608093B00080917A008460809360
:100AC0007A0080917A00826080937A0080917A0027
:100AD000816080937A0080917A00806880937A00A8
:100AE0001092C100E0916F01F091700182E080836B
:100AF000E0916B01F0916C011082E0916D01F09139
:100B00006E018FEC808310927701E0917301F09178
:100B1000740186E08083E0917101F091720180811F
:100B200080618083E0917101F09172018081886021
:100B30008083E0917101F0917201808180688083EF
:100B4000E0917101F091720180818F7D808320910D
:100B5000020230910302032E000C440B550B60E09F
:100B600077E883E993E00E940006CA01B9012AE010
:100B700030E040E050E00E9400062093FE013093F8
:100B8000FF014093000250930102C0E0D0E085E1F4
:100B900091E00E940F0480E098E00E945D028FE1E6
:100BA00091E00E940F040E9427028EE291E00E94D1
:100BB0000F0480E098EF0E945D028FE391E00E94B5
:100BC0000F040E942702209711F30E946C038823D0
:100BD000F1F20E940000DBCF97FB072E16F4009481
:100BE00007D077FD09D00E94250607FC05D03EF40A
:100BF000909581959F4F0895709561957F4F0895C9
:100C0000052E97FB1EF400940E94170657FD07D08F
:100C10000E94390607FC03D04EF40C941706509539
:100C20004095309521953F4F4F4F5F4F08959095D8
:100C30008095709561957F4F8F4F9F4F0895EE0F70
:100C4000FF1F0590F491E02D0994AA1BBB1B51E1F5
:100C500007C0AA1FBB1FA617B70710F0A61BB70B2C
:100C6000881F991F5A95A9F780959095BC01CD01D1
:100C70000895A1E21A2EAA1BBB1BFD010DC0AA1FDD
:100C8000BB1FEE1FFF1FA217B307E407F50720F0F5
:100C9000A21BB30BE40BF50B661F771F881F991F70
:100CA0001A9469F760957095809590959B01AC01B9
:100CB000BD01CF010895F894FFCF00000000A2030A
:100CC00002032F03EF0360033E0352030D0A0043A8
:100CD0006C6F636B7769736500436C6F636B7769E7
:100CE000736520646F6E6500436F756E7465726323
:100CF0006C6F636B7769736500436F756E746572B3
:100D0000636C6F636B7769736520646F6E65000059
:107E0000112484B714BE81FFF0D085E080938100F7
:107E100082E08093C00088E18093C10086E0809377
:107E2000C20080E18093C4008EE0C9D0259A86E02C
:107E300020E33CEF91E0309385002093840096BBD3
:107E4000B09BFECF1D9AA8958150A9F7CC24DD24C4
:107E500088248394B5E0AB2EA1E19A2EF3E0BF2EE7
:107E6000A2D0813461F49FD0082FAFD0023811F036
:107E7000013811F484E001C083E08DD089C08234E0
:107E800011F484E103C0853419F485E0A6D080C0E4
:107E9000853579F488D0E82EFF2485D0082F10E0AE
:107EA000102F00270E291F29000F111F8ED06801E7
:107EB0006FC0863521F484E090D080E0DECF843638
:107EC00009F040C070D06FD0082F6DD080E0C81688
:107ED00080E7D80618F4F601B7BEE895C0E0D1E017
:107EE00062D089930C17E1F7F0E0CF16F0E7DF06D8
:107EF00018F0F601B7BEE89568D007B600FCFDCFD4
:107F0000A601A0E0B1E02C9130E011968C91119780
:107F100090E0982F8827822B932B1296FA010C0160
:107F200087BEE89511244E5F5F4FF1E0A038BF0790
:107F300051F7F601A7BEE89507B600FCFDCF97BE46
:107F4000E89526C08437B1F42ED02DD0F82E2BD052
:107F50003CD0F601EF2C8F010F5F1F4F84911BD097
:107F6000EA94F801C1F70894C11CD11CFA94CF0C13
:107F7000D11C0EC0853739F428D08EE10CD085E9AC
:107F80000AD08FE07ACF813511F488E018D01DD067
:107F900080E101D065CF982F8091C00085FFFCCF94
:107FA0009093C60008958091C00087FFFCCF809118
:107FB000C00084FD01C0A8958091C6000895E0E648
:107FC000F0E098E1908380830895EDDF803219F02E
:107FD00088E0F5DFFFCF84E1DECF1F93182FE3DFCA
:107FE0001150E9F7F2DF1F91089580E0E8DFEE27F6
:047FF000FF270994CA
:027FFE00040479
:00000001FF
