:020000040000FA
:100000000C9462000C948A000C948A000C948A0070
:100010000C948A000C948A000C948A000C948A0038
:100020000C948A000C948A000C948A000C948A0028
:100030000C948A000C948A000C948A000C948A0018
:100040000C94E9020C948A000C9459030C94330329
:100050000C948A000C948A000C948A000C948A00F8
:100060000C948A000C948A000000000024002700F1
:100070002A0000000000250028002B0000000000DE
:1000800023002600290004040404040404040202DA
:100090000202020203030303030301020408102007
:1000A0004080010204081020010204081020000012
:1000B0000008000201000003040700000000000027
:1000C00000008B0311241FBECFEFD8E0DEBFCDBFF1
:1000D00011E0A0E0B1E0E2E1F3E102C005900D9291
:1000E000AC33B107D9F721E0ACE3B1E001C01D9218
:1000F000A33FB207E1F710E0C2E6D0E004C02197C9
:10010000FE010E945C08C136D107C9F70E94CA03EC
:100110000C9487090C940000833081F028F481301E
:1001200099F08230A9F008958730A9F08830C9F09D
:100130008430B1F4809180008F7D03C08091800075
:100140008F7780938000089584B58F7784BD08955C
:1001500084B58F7DFBCF8091B0008F778093B00006
:1001600008958091B0008F7DF9CFCF93DF93282F32
:1001700030E0F901E255FF4F8491F901E656FF4F57
:10018000D491F901EA57FF4FC491CC23A1F081111A
:100190000E948C00EC2FF0E0EE0FFF1FE458FF4FA1
:1001A000A591B491EC91ED2381E090E009F480E019
:1001B000DF91CF91089580E090E0FACF1F93CF9325
:1001C000DF93282F30E0F901E255FF4F8491F901C8
:1001D000E656FF4FD491F901EA57FF4FC491CC2363
:1001E000A9F0162F81110E948C00EC2FF0E0EE0F89
:1001F000FF1FEE58FF4FA591B4918FB7F894EC9183
:10020000111108C0D095DE23DC938FBFDF91CF9111
:100210001F910895DE2BF8CF3FB7F89480914101EC
:1002200090914201A0914301B091440126B5A89B51
:1002300005C02F3F19F00196A11DB11D3FBFBA2F78
:10024000A92F982F8827BC01CD01620F711D811D38
:10025000911D42E0660F771F881F991F4A95D1F7BD
:1002600008958F929F92AF92BF92CF92DF92EF92BA
:10027000FF926B017C010E940C014B015C01C114D7
:10028000D104E104F104B9F00E940C016819790964
:100290008A099B09683E73408105910580F321E03E
:1002A000C21AD108E108F10888EE880E83E0981E92
:1002B000A11CB11CE4CFFF90EF90DF90CF90BF90D6
:1002C000AF909F908F900895AF92BF92CF92DF92A0
:1002D000EF92FF920F931F93CF93DF936C017B01FB
:1002E0008B01040F151FEB015E01AE18BF08C0178C
:1002F000D10759F06991D601ED91FC910190F081FF
:10030000E02DC6010995892B79F7C501DF91CF91C1
:100310001F910F91FF90EF90DF90CF90BF90AF9023
:100320000895FC01538D448D252F30E0842F90E0FB
:10033000821B930B541710F0CF96089501970895E0
:10034000FC01918D828D981761F0A28DAE0FBF2FA9
:10035000B11D5D968C91928D9F5F9F73928F90E0FF
:1003600008958FEF9FEF0895FC01918D828D98176E
:1003700031F0828DE80FF11D858D90E008958FEFAB
:100380009FEF0895FC01918D228D892F90E0805C74
:100390009F4F821B91098F739927089585E491E0FF
:1003A0000E94C20121E0892B09F420E0822F0895E8
:1003B00080E090E0892B29F00E94CE0181110C94FD
:1003C00000000895FC01A48DA80FB92FB11DA35AF8
:1003D000BF4F2C91848D90E001968F739927848F65
:1003E000A689B7892C93A089B1898C918370806488
:1003F0008C93938D848D981306C00288F389E02D29
:1004000080818F7D80830895EF92FF920F931F93D9
:10041000CF93DF93EC0181E0888F9B8D8C8D9813B7
:100420001AC0E889F989808185FF15C09FB7F894C3
:10043000EE89FF896083E889F9898081837080640F
:1004400080839FBF81E090E0DF91CF911F910F915A
:10045000FF90EF900895F62E0B8D10E00F5F1F4F69
:100460000F731127E02E8C8D8E110CC00FB607FC78
:10047000FACFE889F989808185FFF5CFCE010E9406
:10048000E201F1CFEB8DEC0FFD2FF11DE35AFF4F91
:10049000F0829FB7F8940B8FEA89FB898081806294
:1004A000CFCFCF93DF93EC01888D8823B9F0AA8951
:1004B000BB89E889F9898C9185FD03C0808186FD1F
:1004C0000DC00FB607FCF7CF8C9185FFF2CF80816E
:1004D00085FFEDCFCE010E94E201E9CFDF91CF9100
:1004E00008950895FC0101900020E9F73197AF01CC
:1004F000481B590BBC0185E491E00C9464018F9278
:100500009F92AF92BF920F931F93CF93DF93CDB77C
:10051000DEB7A1970FB6F894DEBF0FBECDBF19A20C
:10052000423008F44AE08E010F5D1F4F842E912C5B
:10053000B12CA12CA50194010E941B08E62FB90142
:10054000CA01EA30F4F4E05DD801EE938D01232B6B
:10055000242B252B79F790E080E0109719F0CD013E
:100560000E947202A1960FB6F894DEBF0FBECDBFF7
:10057000DF91CF911F910F91BF90AF909F908F907F
:100580000895E95CE1CFFF920F931F93CF93DF9320
:10059000F82E062FC7E0D0E010E061E0802F0E9427
:1005A000DE008F2D0E94B5000C2E01C0880F0A942A
:1005B000EAF7182B60E0802F0E94DE00219768F791
:1005C000812FDF91CF911F910F91FF9008950C948F
:1005D000FE081F920F920FB60F9211242F933F9394
:1005E0008F939F93AF93BF9380913D0190913E0174
:1005F000A0913F01B091400130913C0123E0230FD5
:100600002D3758F50196A11DB11D20933C01809313
:100610003D0190933E01A0933F01B0934001809132
:10062000410190914201A0914301B0914401019692
:10063000A11DB11D8093410190934201A0934301FC
:10064000B0934401BF91AF919F918F913F912F91B2
:100650000F900FBE0F901F90189526E8230F02965B
:10066000A11DB11DD2CF1F920F920FB60F92112470
:100670002F933F934F935F936F937F938F939F93AA
:10068000AF93BF93EF93FF9385E491E00E94E20163
:10069000FF91EF91BF91AF919F918F917F916F915A
:1006A0005F914F913F912F910F900FBE0F901F9030
:1006B00018951F920F920FB60F9211242F938F93BC
:1006C0009F93EF93FF93E0915501F0915601808144
:1006D000E0915B01F0915C0182FD1BC090818091F3
:1006E0005E018F5F8F7320915F01821741F0E0916F
:1006F0005E01F0E0EB5BFE4F958F80935E01FF9112
:10070000EF919F918F912F910F900FBE0F901F909F
:1007100018958081F4CFE5E4F1E01382128288EE2F
:1007200093E0A0E0B0E084839583A683B7838AE05A
:1007300091E09183808385EC90E09587848784ECB9
:1007400090E09787868780EC90E0918B808B81EC9E
:1007500090E0938B828B82EC90E0958B848B86EC7F
:1007600090E0978B868B118E128E138E148EE2EE94
:10077000F1E08CE191E091838083158216821782EB
:10078000108680E090E0A0E8BFE381879287A3878E
:10079000B4870895789484B5826084BD84B58160FF
:1007A00084BD85B5826085BD85B5816085BD80913C
:1007B0006E00816080936E001092810080918100B4
:1007C00082608093810080918100816080938100AC
:1007D000809180008160809380008091B10084606E
:1007E0008093B1008091B00081608093B0008091CF
:1007F0007A00846080937A0080917A00826080938E
:100800007A0080917A00816080937A0080917A00EA
:10081000806880937A001092C100E0915501F091B8
:10082000560192E09083E0915101F09152011082C3
:10083000E0915301F09154018FEC808310925D019F
:10084000E0915901F0915A0186E08083E0915701CF
:10085000F0915801808180618083E0915701F0918F
:100860005801808188608083E0915701F0915801A0
:10087000808180688083E0915701F09158018081E8
:100880008F7D808383E08093E4019093E501EDE91F
:10089000F0E02491E9E8F0E08491882399F090E079
:1008A000880F991FFC01E859FF4FA591B491FC01F5
:1008B000EE58FF4F859194918FB7F894EC91E22B0D
:1008C000EC938FBF8091E50190E0FC01E656FF4F6D
:1008D00024918A579F4FFC0184918823C1F090E0B6
:1008E000880F991FFC01E859FF4FC591D491FC0175
:1008F000EE58FF4FA591B4919FB7F8948881E22FED
:10090000E0958E2388838C91E823EC939FBF81E050
:100910008093E60180E090E0AAE7B4EC8093EB01DD
:100920009093EC01A093ED01B093EE01C0E0D0E014
:100930001AE0812C912C54018091E5010E94B500B0
:10094000892B31F060E070E0CB010E943101F4CFDF
:100950006FB6F8946091E4018091E5010E94C302B2
:10096000D82E6091E4018091E5010E94C302782EA7
:100970006091E4018091E5010E94C302C82EF12C30
:10098000E12C8091E6018E151F0479F070F061E092
:100990008091E4010E94DE0060E08091E4010E9409
:1009A000DE00FFEFEF1AFF0AECCF6FBE872D90E05D
:1009B000B0E0A0E0BA2FA92F982F8827AD298C2965
:1009C000DD0CDD084D2D50E070E060E0742F6627EF
:1009D00055274427842B952BA62BB72B880E991EC1
:1009E000AA1EBB1E60E070E0CB010E9431011150D5
:1009F00009F0A2CFC501B4012AE030E040E050E0A8
:100A00000E943D088091E7019091E801A091E901E1
:100A1000B091EA0179018A01E81AF90A0A0B1B0B65
:100A2000C801B7010E94F4062091EB013091EC015E
:100A30004091ED015091EE010E9451066B017C0145
:100A40004B015C0180E291E00E947202A7019601D5
:100A5000C701B6010E9416088823E9F089E291E0F7
:100A60000E94720285E391E00E94720288E391E0A5
:100A70000E94720268EE73E080E090E00E94310113
:100A8000209709F455CF0E94CE01882309F450CF56
:100A90000E9400004DCF26013701E89477F82FEF30
:100AA0003FEF4FE75FE7C301B2010E9416088111D3
:100AB0000DC02FEF3FEF4FE75FE7C301B2010E9488
:100AC0004C0618161CF48DE291E0CACF2FEF3FEFD1
:100AD0004FE75FE4C701B6010E94A40718161CF493
:100AE00081E391E0BDCF2FEF3FEF4FE75FECC70110
:100AF000B6010E944C0687FDF3CF20E030E0A9014B
:100B0000C701B6010E944C0687FF0BC06DE285E469
:100B100091E00E94040246015701B7FAB094B7F879
:100B2000B0942AE037ED43EA5BE3C501B4010E94CB
:100B3000E0054B015C010E94C3066B017C010E9431
:100B4000F2069B01AC01C501B4010E94DF054B0117
:100B50005C014AE0C701B6010E947F026EE285E4B3
:100B600091E00E94040220E030E040E251E4C5013F
:100B7000B4010E94A9074B015C010E94C3066B01EE
:100B8000F12CE12C4AE0C701B6010E947F02C701A7
:100B9000B6010E94F2069B01AC01C501B4010E949E
:100BA000DF0520E030E040E251E40E94A9070E9406
:100BB000C30690E080E04AE00E947F0253CF505885
:100BC000BB27AA270E94F7050C946A070E945C07BE
:100BD00038F00E94630720F039F49F3F19F426F49F
:100BE0000C9459070EF4E095E7FB0C945307E92F9A
:100BF0000E947B0758F3BA176207730784079507AB
:100C000020F079F4A6F50C949D070EF4E0950B2ED8
:100C1000BA2FA02D0B01B90190010C01CA01A0014E
:100C20001124FF27591B99F0593F50F4503E68F1A9
:100C30001A16F040A22F232F342F4427585FF3CFEA
:100C4000469537952795A795F0405395C9F77EF4BB
:100C50001F16BA0B620B730B840BBAF09150A1F004
:100C6000FF0FBB1F661F771F881FC2F70EC0BA0F8A
:100C7000621F731F841F48F4879577956795B79512
:100C8000F7959E3F08F0B0CF9395880F08F099270D
:100C9000EE0F9795879508950E942F0708F481E03D
:100CA00008950E9465060C946A070E94630758F035
:100CB0000E945C0740F029F45F3F29F00C94530731
:100CC00051110C949E070C9459070E947B0768F3FE
:100CD0009923B1F3552391F3951B550BBB27AA27F5
:100CE00062177307840738F09F5F5F4F220F331F2F
:100CF000441FAA1FA9F335D00E2E3AF0E0E832D0F7
:100D000091505040E695001CCAF72BD0FE2F29D0F9
:100D1000660F771F881FBB1F261737074807AB07CB
:100D2000B0E809F0BB0B802DBF01FF2793585F4F40
:100D30003AF09E3F510578F00C9453070C949E07AF
:100D40005F3FE4F3983ED4F3869577956795B79522
:100D5000F7959F5FC9F7880F911D9695879597F92D
:100D60000895E1E0660F771F881FBB1F62177307A6
:100D70008407BA0720F0621B730B840BBA0BEE1FBB
:100D800088F7E09508950E94830788F09F5798F0B0
:100D9000B92F9927B751B0F0E1F0660F771F881F80
:100DA000991F1AF0BA95C9F714C0B13091F00E949A
:100DB0009D07B1E008950C949D07672F782F882731
:100DC000B85F39F0B93FCCF3869577956795B395C1
:100DD000D9F73EF490958095709561957F4F8F4F30
:100DE0009F4F0895E89409C097FB3EF49095809535
:100DF000709561957F4F8F4F9F4F9923A9F0F92FE1
:100E000096E9BB279395F695879577956795B7955E
:100E1000F111F8CFFAF4BB0F11F460FF1BC06F5F44
:100E20007F4F8F4F9F4F16C0882311F096E911C056
:100E3000772321F09EE8872F762F05C0662371F077
:100E400096E8862F70E060E02AF09A95660F771F8B
:100E5000881FDAF7880F9695879597F90895990F67
:100E60000008550FAA0BE0E8FEEF16161706E80774
:100E7000F907C0F012161306E407F50798F0621B95
:100E8000730B840B950B39F40A2661F0232B242B6A
:100E9000252B21F408950A2609F4A140A6958FEF89
:100EA000811D811D089597F99F6780E870E060E0DB
:100EB00008959FEF80EC089500240A9416161706F3
:100EC00018060906089500240A941216130614063B
:100ED00005060895092E0394000C11F4882352F09E
:100EE000BB0F40F4BF2B11F460FF04C06F5F7F4F56
:100EF0008F4F9F4F089557FD9058440F551F59F03D
:100F00005F3F71F04795880F97FB991F61F09F3FF6
:100F100079F087950895121613061406551FF2CF1F
:100F20004695F1DF08C0161617061806991FF1CF6F
:100F300086957105610508940895E894BB27662796
:100F40007727CB0197F908950E942F0708F48FEFB8
:100F500008950E94BC070C946A070E945C0738F051
:100F60000E94630720F0952311F00C9453070C9412
:100F7000590711240C949E070E947B0770F3959FDC
:100F8000C1F3950F50E0551F629FF001729FBB2780
:100F9000F00DB11D639FAA27F00DB11DAA1F649F1C
:100FA0006627B00DA11D661F829F2227B00DA11DCF
:100FB000621F739FB00DA11D621F839FA00D611D55
:100FC000221F749F3327A00D611D231F849F600D76
:100FD000211D822F762F6A2F11249F5750409AF09F
:100FE000F1F088234AF0EE0FFF1FBB1F661F771F2B
:100FF000881F91505040A9F79E3F510580F00C94F6
:1010000053070C949E075F3FE4F3983ED4F3869514
:1010100077956795B795F795E7959F5FC1F7FE2B95
:10102000880F911D9695879597F908950E942F072F
:10103000880B990B0895A1E21A2EAA1BBB1BFD0178
:101040000DC0AA1FBB1FEE1FFF1FA217B307E407A7
:10105000F50720F0A21BB30BE40BF50B661F771FFF
:10106000881F991F1A9469F76095709580959095DF
:101070009B01AC01BD01CF010895052E97FB1EF425
:1010800000940E94540857FD07D00E941B0807FCDB
:1010900003D04EF40C94540850954095309521950A
:1010A0003F4F4F4F5F4F0895909580957095619594
:1010B0007F4F8F4F9F4F0895EE0FFF1F0590F491C4
:1010C000E02D09940F931F93CF93DF938230910506
:1010D00010F482E090E0E091F101F091F20130E053
:1010E00020E0B0E0A0E0309799F42115310509F433
:1010F0004AC0281B390B24303105D8F58A819B81E1
:101100006115710589F1FB0193838283FE0111C092
:10111000408151810281138148175907E0F0481737
:10112000590799F4109761F012960C931297139641
:101130001C933296CF01DF91CF911F910F910895AB
:101140000093F1011093F201F4CF2115310551F014
:101150004217530738F0A901DB019A01BD01DF01F5
:10116000F801C1CFEF01F9CF9093F2018093F10123
:10117000CDCFFE01E20FF31F8193919322503109ED
:1011800039832883D7CF2091EF013091F001232BB1
:1011900041F420910201309103013093F00120933A
:1011A000EF0120910001309101012115310541F439
:1011B0002DB73EB74091040150910501241B350B1A
:1011C000E091EF01F091F001E217F307A0F42E1B7C
:1011D0003F0B2817390778F0AC014E5F5F4F24179B
:1011E000350748F04E0F5F1F5093F0014093EF0119
:1011F000819391939FCFF0E0E0E09CCFCF93DF937A
:101200000097E9F0FC01329713821282A091F1015C
:10121000B091F201ED0130E020E01097A1F42081BF
:101220003181820F931F2091EF013091F001281737
:10123000390709F061C0F093F001E093EF01DF910D
:10124000CF910895EA01CE17DF07E8F54A815B8167
:101250009E0141155105B1F7E901FB83EA834991EC
:101260005991C40FD51FEC17FD0761F4808191815E
:101270000296840F951FE901998388838281938167
:101280009B838A83F0E0E0E012968D919C91139706
:101290000097B9F52D913C911197CD010296820FDF
:1012A000931F2091EF013091F0012817390739F68B
:1012B000309751F51092F2011092F101B093F001C4
:1012C000A093EF01BCCFD383C28340815181840FAF
:1012D000951FC817D90761F44E5F5F4F88819981C8
:1012E000480F591F518340838A819B819383828356
:1012F0002115310509F0B0CFF093F201E093F1012F
:101300009ECFFD01DC01C0CF13821282D7CFF894AB
:10131000FFCF0000F3018000000000000402640120
:1013200091015102C201A001B4010000000071024C
:10133000E7025765696768743A20006E616E00695C
:0E1340006E66006F7666002067000D0A0000E2
:107E0000112484B714BE81FFF0D085E080938100F7
:107E100082E08093C00088E18093C10086E0809377
:107E2000C20080E18093C4008EE0C9D0259A86E02C
:107E300020E33CEF91E0309385002093840096BBD3
:107E4000B09BFECF1D9AA8958150A9F7CC24DD24C4
:107E500088248394B5E0AB2EA1E19A2EF3E0BF2EE7
:107E6000A2D0813461F49FD0082FAFD0023811F036
:107E7000013811F484E001C083E08DD089C08234E0
:107E800011F484E103C0853419F485E0A6D080C0E4
:107E9000853579F488D0E82EFF2485D0082F10E0AE
:107EA000102F00270E291F29000F111F8ED06801E7
:107EB0006FC0863521F484E090D080E0DECF843638
:107EC00009F040C070D06FD0082F6DD080E0C81688
:107ED00080E7D80618F4F601B7BEE895C0E0D1E017
:107EE00062D089930C17E1F7F0E0CF16F0E7DF06D8
:107EF00018F0F601B7BEE89568D007B600FCFDCFD4
:107F0000A601A0E0B1E02C9130E011968C91119780
:107F100090E0982F8827822B932B1296FA010C0160
:107F200087BEE89511244E5F5F4FF1E0A038BF0790
:107F300051F7F601A7BEE89507B600FCFDCF97BE46
:107F4000E89526C08437B1F42ED02DD0F82E2BD052
:107F50003CD0F601EF2C8F010F5F1F4F84911BD097
:107F6000EA94F801C1F70894C11CD11CFA94CF0C13
:107F7000D11C0EC0853739F428D08EE10CD085E9AC
:107F80000AD08FE07ACF813511F488E018D01DD067
:107F900080E101D065CF982F8091C00085FFFCCF94
:107FA0009093C60008958091C00087FFFCCF809118
:107FB000C00084FD01C0A8958091C6000895E0E648
:107FC000F0E098E1908380830895EDDF803219F02E
:107FD00088E0F5DFFFCF84E1DECF1F93182FE3DFCA
:107FE0001150E9F7F2DF1F91089580E0E8DFEE27F6
:047FF000FF270994CA
:027FFE00040479
:00000001FF
