:100000000C9462000C948A000C948A000C948A0070
:100010000C948A000C948A000C948A000C948A0038
:100020000C948A000C948A000C948A000C948A0028
:100030000C948A000C948A000C948A000C948A0018
:100040000C94A5020C948A000C9415030C94EF02F6
:100050000C948A000C948A000C948A000C948A00F8
:100060000C948A000C948A000000000024002700F1
:100070002A0000000000250028002B0000000000DE
:1000800023002600290004040404040404040202DA
:100090000202020203030303030301020408102007
:1000A0004080010204081020010204081020000012
:1000B0000008000201000003040700000000000027
:1000C0000000470311241FBECFEFD8E0DEBFCDBF35
:1000D00011E0A0E0B1E0EEEBFCE002C005900D9273
:1000E000A434B107D9F721E0A4E4B1E001C01D9226
:1000F000AB3FB207E1F710E0C2E6D0E004C02197C1
:10010000FE010E943205C136D107C9F70E9486035D
:100110000C945D060C940000833081F028F481304B
:1001200099F08230A9F008958730A9F08830C9F09D
:100130008430B1F4809180008F7D03C08091800075
:100140008F7780938000089584B58F7784BD08955C
:1001500084B58F7DFBCF8091B0008F778093B00006
:1001600008958091B0008F7DF9CFCF93DF93282F32
:1001700030E0F901E255FF4F8491F901E656FF4F57
:10018000D491F901EA57FF4FC491CC23A1F081111A
:100190000E948C00EC2FF0E0EE0FFF1FE458FF4FA1
:1001A000A591B491EC91ED2381E090E009F480E019
:1001B000DF91CF91089580E090E0FACF1F93CF9325
:1001C000DF93282F30E0F901E255FF4F8491F901C8
:1001D000E656FF4FD491F901EA57FF4FC491CC2363
:1001E000A9F0162F81110E948C00EC2FF0E0EE0F89
:1001F000FF1FEE58FF4FA591B4918FB7F894EC9183
:10020000111108C0D095DE23DC938FBFDF91CF9111
:100210001F910895DE2BF8CF3FB7F89480914901E4
:1002200090914A01A0914B01B0914C0126B5A89B39
:1002300005C02F3F19F00196A11DB11D3FBFBA2F78
:10024000A92F982F8827BC01CD01620F711D811D38
:10025000911D42E0660F771F881F991F4A95D1F7BD
:1002600008958F929F92AF92BF92CF92DF92EF92BA
:10027000FF926B017C010E940C014B015C01C114D7
:10028000D104E104F104B9F00E940C016819790964
:100290008A099B09683E73408105910580F321E03E
:1002A000C21AD108E108F10888EE880E83E0981E92
:1002B000A11CB11CE4CFFF90EF90DF90CF90BF90D6
:1002C000AF909F908F900895AF92BF92CF92DF92A0
:1002D000EF92FF920F931F93CF93DF936C017B01FB
:1002E0008B01040F151FEB015E01AE18BF08C0178C
:1002F000D10759F06991D601ED91FC910190F081FF
:10030000E02DC6010995892B79F7C501DF91CF91C1
:100310001F910F91FF90EF90DF90CF90BF90AF9023
:100320000895FC01538D448D252F30E0842F90E0FB
:10033000821B930B541710F0CF96089501970895E0
:10034000FC01918D828D981761F0A28DAE0FBF2FA9
:10035000B11D5D968C91928D9F5F9F73928F90E0FF
:1003600008958FEF9FEF0895FC01918D828D98176E
:1003700031F0828DE80FF11D858D90E008958FEFAB
:100380009FEF0895FC01918D228D892F90E0805C74
:100390009F4F821B91098F73992708958DE491E0F7
:1003A0000E94C20121E0892B09F420E0822F0895E8
:1003B00080E090E0892B29F00E94CE0181110C94FD
:1003C00000000895FC01A48DA80FB92FB11DA35AF8
:1003D000BF4F2C91848D90E001968F739927848F65
:1003E000A689B7892C93A089B1898C918370806488
:1003F0008C93938D848D981306C00288F389E02D29
:1004000080818F7D80830895EF92FF920F931F93D9
:10041000CF93DF93EC0181E0888F9B8D8C8D9813B7
:100420001AC0E889F989808185FF15C09FB7F894C3
:10043000EE89FF896083E889F9898081837080640F
:1004400080839FBF81E090E0DF91CF911F910F915A
:10045000FF90EF900895F62E0B8D10E00F5F1F4F69
:100460000F731127E02E8C8D8E110CC00FB607FC78
:10047000FACFE889F989808185FFF5CFCE010E9406
:10048000E201F1CFEB8DEC0FFD2FF11DE35AFF4F91
:10049000F0829FB7F8940B8FEA89FB898081806294
:1004A000CFCFCF93DF93EC01888D8823B9F0AA8951
:1004B000BB89E889F9898C9185FD03C0808186FD1F
:1004C0000DC00FB607FCF7CF8C9185FFF2CF80816E
:1004D00085FFEDCFCE010E94E201E9CFDF91CF9100
:1004E00008950895FC0101900020E9F73197AF01CC
:1004F000481B590BBC018DE491E00C946401FF9200
:100500000F931F93CF93DF93F82E062FC7E0D0E011
:1005100010E061E0802F0E94DE008F2D0E94B50068
:100520000C2E01C0880F0A94EAF7182B60E0802F88
:100530000E94DE00219768F7812FDF91CF911F91F4
:100540000F91FF9008950C94D4051F920F920FB64F
:100550000F9211242F933F938F939F93AF93BF9349
:100560008091450190914601A0914701B0914801C9
:100570003091440123E0230F2D3758F50196A11D3A
:10058000B11D209344018093450190934601A093AF
:100590004701B09348018091490190914A01A0918F
:1005A0004B01B0914C010196A11DB11D80934901F1
:1005B00090934A01A0934B01B0934C01BF91AF912E
:1005C0009F918F913F912F910F900FBE0F901F9091
:1005D000189526E8230F0296A11DB11DD2CF1F92B8
:1005E0000F920FB60F9211242F933F934F935F9367
:1005F0006F937F938F939F93AF93BF93EF93FF93EB
:100600008DE491E00E94E201FF91EF91BF91AF91E3
:100610009F918F917F916F915F914F913F912F911A
:100620000F900FBE0F901F9018951F920F920FB64C
:100630000F9211242F938F939F93EF93FF93E09149
:100640005D01F0915E018081E0916301F0916401B0
:1006500082FD1BC09081809166018F5F8F73209116
:100660006701821741F0E0916601F0E0E35BFE4F25
:10067000958F80936601FF91EF919F918F912F91BC
:100680000F900FBE0F901F9018958081F4CFEDE46E
:10069000F1E01382128288EE93E0A0E0B0E0848360
:1006A0009583A683B7838AE091E09183808385EC6C
:1006B00090E09587848784EC90E09787868780EC2C
:1006C00090E0918B808B81EC90E0938B828B82EC1D
:1006D00090E0958B848B86EC90E0978B868B118EC7
:1006E000128E138E148EEAEEF1E08CE191E091838C
:1006F0008083158216821782108680E090E0A0E841
:10070000BFE381879287A387B4870895CF93DF9350
:10071000CDB7DEB7A1970FB6F894DEBF0FBECDBF41
:10072000789484B5826084BD84B5816084BD85B5CC
:10073000826085BD85B5816085BD80916E008160D8
:1007400080936E001092810080918100826080937E
:100750008100809181008160809381008091800080
:100760008160809380008091B10084608093B100AB
:100770008091B00081608093B00080917A008460A5
:1007800080937A0080917A00826080937A008091D1
:100790007A00816080937A0080917A0080688093EB
:1007A0007A001092C100E0915D01F0915E0192E04B
:1007B0009083E0915D01F0915E011082E09159011A
:1007C000F0915A011082E0915B01F0915C0180E1AF
:1007D000808310926501E0916101F091620186E0F1
:1007E0008083E0915F01F09160018081806180836E
:1007F000E0915F01F0916001808188608083E091E9
:100800005F01F0916001808180688083E0915F01E9
:10081000F091600180818F7D808383E08093EC0183
:100820009093ED01EDE9F0E02491E9E8F0E08491A6
:10083000882399F090E0880F991FFC01E859FF4F39
:10084000A591B491FC01EE58FF4F859194918FB71B
:10085000F894EC91E22BEC938FBF8091ED0190E046
:10086000FC01E656FF4F24918A579F4FFC0184916B
:100870008823C9F090E0880F991FFC01E859FF4FC9
:1008800045915491FC01EE58FF4FA591B4919FB74B
:10089000F894FA0180812095822380838C91E22F45
:1008A000E823EC939FBF81E08093EE012AE0422E83
:1008B000512C612C712C30E0A32E30E0B32E8091AE
:1008C000ED010E94B500892B09F0A5C08091ED01D2
:1008D0000E94B500892B31F060E070E0CB010E94EE
:1008E0003101F4CFDFB6F8946091EC018091ED0115
:1008F0000E947F02182F6091EC018091ED010E940F
:100900007F02C82E6091EC018091ED010E947F0270
:10091000082FF12CE12C8091EE018E151F0479F047
:1009200070F061E08091EC010E94DE0060E0809157
:10093000EC010E94DE00FFEFEF1AFF0AECCFDFBEF2
:10094000D12CF12CE12CFE2CED2CDC2CCC24E12A3A
:10095000C02A110F110B212F30E050E040E0522F40
:10096000442733272227C22AD32AE42AF52A80E201
:1009700091E00E947202F7FE38C06DE28DE491E0D2
:100980000E94040222273327A9012C193D094E0990
:100990005F0919A28E010F5D1F4FCA01B901A301A2
:1009A00092010E941005605DF80162938F0121158C
:1009B00031054105510589F7C801012B71F580E327
:1009C00091E00E94720268EE73E080E090E00E9485
:1009D0003101A114B10409F472CF0E94CE01882321
:1009E00009F46DCF0E9400006ACF19A28E010F5D3D
:1009F0001F4FC701B601A30192010E9410056901B2
:100A00007A01605DF80162938F01C114D104E104A1
:100A1000F10479F7D1CF83E391E00E947202CFCF46
:100A2000A1E21A2EAA1BBB1BFD010DC0AA1FBB1FF2
:100A3000EE1FFF1FA217B307E407F50720F0A21B64
:100A4000B30BE40BF50B661F771F881F991F1A94D1
:100A500069F760957095809590959B01AC01BD01FB
:100A6000CF010895EE0FFF1F0590F491E02D09943A
:100A70000F931F93CF93DF938230910510F482E0A0
:100A800090E0E091F901F091FA0130E020E0B0E06F
:100A9000A0E0309799F42115310509F44AC0281BCC
:100AA000390B24303105D8F58A819B816115710598
:100AB00089F1FB0193838283FE0111C04081518142
:100AC0000281138148175907E0F04817590799F434
:100AD000109761F012960C93129713961C9332960E
:100AE000CF01DF91CF911F910F9108950093F901EC
:100AF0001093FA01F4CF2115310551F04217530735
:100B000038F0A901DB019A01BD01DF01F801C1CF75
:100B1000EF01F9CF9093FA018093F901CDCFFE0157
:100B2000E20FF31F81939193225031093983288377
:100B3000D7CF2091F7013091F801232B41F4209178
:100B40000201309103013093F8012093F7012091C5
:100B50000001309101012115310541F42DB73EB757
:100B60004091040150910501241B350BE091F701E0
:100B7000F091F801E217F307A0F42E1B3F0B2817A2
:100B8000390778F0AC014E5F5F4F2417350748F006
:100B90004E0F5F1F5093F8014093F701819391939B
:100BA0009FCFF0E0E0E09CCFCF93DF930097E9F098
:100BB000FC01329713821282A091F901B091FA01DF
:100BC000ED0130E020E01097A1F420813181820F07
:100BD000931F2091F7013091F8012817390709F088
:100BE00061C0F093F801E093F701DF91CF91089590
:100BF000EA01CE17DF07E8F54A815B819E014115C6
:100C00005105B1F7E901FB83EA8349915991C40F7A
:100C1000D51FEC17FD0761F4808191810296840F46
:100C2000951FE90199838883828193819B838A83BD
:100C3000F0E0E0E012968D919C9113970097B9F542
:100C40002D913C911197CD010296820F931F209117
:100C5000F7013091F8012817390739F6309751F527
:100C60001092FA011092F901B093F801A093F701E4
:100C7000BCCFD383C28340815181840F951FC81795
:100C8000D90761F44E5F5F4F88819981480F591FE2
:100C9000518340838A819B8193838283211531050F
:100CA00009F0B0CFF093FA01E093F9019ECFFD0176
:0E0CB000DC01C0CF13821282D7CFF894FFCFA1
:100CBE000000FB01800000000000040264019101AD
:100CCE005102C201A001B401000000007102A30292
:100CDE0048583731312072656164696E673A200079
:100CEE000D0A004858373131206E6F7420666F75CB
:040CFE006E642E00F2
:00000001FF
